:040000005AEF54F06F
:020006001200E6
:1000080000C016F001C015F0E1CF17F0E2CF18F0EC
:100018009EAA25D02CEC52F000C025F202012651F0
:10002800000A04E12551AA0A01E104D02651000A78
:1000380001E10BD04C0EE16E080EE26E2651E1266E
:10004800D8B0E22A25C2E6FF262B2551BB0A03E1D8
:10005800010E756F266B26511208D8A0266BF2A4E4
:100068006FD00101444B452B484B492B45513D0A64
:1000780002E1090E441958E102018A51010A09E115
:100088002A2B2A51B20A04E12A6B8A6B0301076BF7
:1000980002D002012A6B0101592B5951200A03E1B0
:1000A800596B010E5A6F02014451010A06E1FA0E1A
:1000B8000301325D02E2322B02D00301326B010EE2
:1000C80004014427000E452346234723010EC82771
:1000D800000EC923CA23CB230101446B456B800E54
:1000E800006E800E090A005C03E1FB0E0201325D1E
:1000F80003E20201322B02D00201326B432B43513F
:100108003C0A02E1436B742B74513C0A02E1746BA4
:10011800422B2B51010AD8B4292B7751010A04E14B
:10012800C80E765DD8A0762B010149510C0A02E170
:10013800350E481904E1010E586F486B496BF2946B
:1001480016C000F015C001F017C0E1FF18C0E2FFAB
:02015800110094
:0E015A00ACB202D00000FCD762CAADFF1200AA
:1001680062CAC9FFC7B002D00000FCD7C9CF00F0EF
:02017800120073
:10017A00F250026EF29E0500FF6A0150FE6E0050B8
:08018A00FD6E02BEF28E1200B0
:1001920021C25EFA22C25FFA23C260FA24C261FA65
:1001A2009E96C5869EB620D00201215122112311AE
:1001B200241119E00A015E515F11601161110CE115
:1001C200B7C7E1FFB8C7E2FF030EE66EB5C700F09E
:1001D200B6C701F0D1DF08D0010E0A015E5F000E42
:1001E2005F5B605B615BDED70A01C9CF5DFA5C5180
:1001F200000A02E1C58A01D0C59A9E96C58821C22D
:100202005EFA22C25FFA23C260FA24C261FA9EB683
:1002120020D00201215122112311241119E00A01D7
:100222005E515F11601161110CE1B7C7E1FFB8C700
:10023200E2FF030EE66EB5C700F0B6C701F09CDF21
:1002420008D0010E0A015E5F000E5F5B605B615BBE
:08025200DED75DCA00F01200C6
:10025A005CCAC9FFC7B002D00000FCD7C9CF00F002
:02026A00120080
:10026C009E965CCAC9FF21C25DFA22C25EFA23C205
:10027C005FFA24C260FAC7A422D0020121512211D4
:10028C00231124111BE00A015D515E115F116011F5
:10029C000EE1B7C7E1FFB8C7E2FF040EE66EB5C7C3
:1002AC0000F0B6C701F063DF010E006E3BD0010E0B
:1002BC000A015D5F000E5E5B5F5B605BDCD721C299
:1002CC005DFA22C25EFA23C25FFA24C260FA9EB6BD
:1002DC0022D0020121512211231124111BE00A0109
:1002EC005D515E115F1160110EE1B7C7E1FFB8C738
:1002FC00E2FF040EE66EB5C700F0B6C701F037DFBB
:10030C00010E006E0FD0010E0A015D5F000E5E5BE8
:10031C005F5B605BDCD7C5BC02D0006A03D0C584D0
:06032C00020E006E12003B
:100332008098400E0A015911006E31C8E1FF32C89F
:10034200E2FF00C0E6FF2FC800F030C801F014DF62
:1003520031C8E1FF32C8E2FF5ACAE6FF2FC800F0F7
:1003620030C801F009DF31C8E1FF32C8E2FF5BCAE1
:10037200E6FF2FC800F030C801F0FEDE80881200D0
:100382000450085E0550D8A0053C095E0650D8A06E
:10039200063C0A5E0750D8A0073C0B5E0336070EE8
:1003A2000C6E0334083609360A360B36045003A0A5
:1003B2000ED0085E0550D8A0053C095E0650D8A0B4
:1003C200063C0A5E0750D8A0073C0B5E0DD00826FB
:1003D2000550D8B0053C09260650D8B0063C0A267E
:1003E2000750D8B0073C0B2603360C2EDAD702345E
:1003F200083609360A360B36045003A00ED0085EC2
:100402000550D8A0053C095E0650D8A0063C0A5EFD
:100412000750D8A0073C0B5E0DD008260550D8B077
:10042200053C09260650D8B0063C0A260750D8B02B
:10043200073C0B260236070E0C6E023408360936CC
:100442000A360B36045002A00ED0085E0550D8A022
:10045200053C095E0650D8A0063C0A5E0750D8A0AB
:10046200073C0B5E0DD008260550D8B0053C092686
:100472000650D8B0063C0A260750D8B0073C0B26D7
:1004820002360C2EDAD70134083609360A360B3614
:10049200045002A00ED0085E0550D8A0053C095EAB
:1004A2000650D8A0063C0A5E0750D8A0073C0B5E57
:1004B2000DD008260550D8B0053C09260650D8B004
:1004C200063C0A260750D8B0073C0B260136070E19
:1004D2000C6E0134083609360A360B36045001A078
:1004E2000ED0085E0550D8A0053C095E0650D8A083
:1004F200063C0A5E0750D8A0073C0B5E0DD00826CA
:100502000550D8B0053C09260650D8B0063C0A264C
:100512000750D8B0073C0B2601360C2EDAD7003430
:10052200083609360A360B36045001A00ED0085E92
:100532000550D8A0053C095E0650D8A0063C0A5ECC
:100542000750D8A0073C0B5E0DD008260550D8B046
:10055200053C09260650D8B0063C0A260750D8B0FA
:10056200073C0B260036070E0C6E0034083609369F
:100572000A360B36045000A00ED0085E0550D8A0F3
:10058200053C095E0650D8A0063C0A5E0750D8A07A
:10059200073C0B5E0DD008260550D8B0053C092655
:1005A2000650D8B0063C0A260750D8B0073C0B26A6
:1005B20000360C2EDAD700B00ED0045008260550B3
:1005C200D8B0053C09260650D8B0063C0A2607508A
:0805D200D8B0073C0B26120013
:1005DA000B1E0A1E091E081E082AD8B4092AD8B4F6
:0805EA000A2AD8B40B2A120002
:1005F2000A01596B56CA5AFA57CA5BFA99DE8098B1
:1006020031C8E1FF32C8E2FF3A0EE66E2FC800F0B1
:1006120030C801F0B1DD31C8E1FF32C8E2FFE66A5D
:0E0622002FC800F030C801F0A7DD808812005C
:100630008098A00E0A015611006E31C8E1FF32C841
:10064000E2FF00C0E6FF2FC800F030C801F095DDE2
:1006500031C8E1FF32C8E2FF57CAE6FF2FC800F0F9
:0A06600030C801F08ADD8088120026
:10066A00809831C8E1FF32C8E2FF7A0EE66E2FC8E1
:10067A0000F030C801F07CDD31C8E1FF32C8E2FF8A
:10068A0056CAE6FF2FC800F030C801F071DD808835
:02069A0012004C
:0E069C00026A016A006A086A036A000E120010
:1006AA00220E0C6E086A096A0A6A0B6A0C06D8B42A
:1006BA001FD0D8900B320A32093208320332023282
:1006CA0001320032D8A0F2D70C06D8B409D00450AF
:1006DA0008260550092206500A2207500B22EAD79B
:1006EA00045008260550092206500A2207500B22F8
:0206FA001200EC
:1006FC000450000A12E10550000A0FE10650000AEE
:10070C000CE10750000A09E1FF0E006EFF0E016EAE
:10071C00FF0E026E7F0E036E97D00C6A07BE0C2A7A
:10072C000D6A0B6A0A6A096A086A03500210011002
:10073C000010D8B484D0035007180E6E0EBE0D1ED8
:10074C0007AE0BD0041E051E061E071E042AD8B4C5
:10075C00052AD8B4062AD8B4072A03AE0BD0001E3B
:10076C00011E021E031E002AD8B4012AD8B4022A84
:10077C00D8B4032A035007100E6E0EBE1CD0FBDD3E
:10078C000CBE36D00DAE5BD0001E011E021E031E29
:10079C00002AD8B4012AD8B4022AD8B4032A081ED5
:1007AC00091E0A1E0B1E082AD8B4092AD8B40A2A14
:1007BC00D8B40B2A44D007AE15D003BE0DD00350CD
:1007CC000B6E02500A6E0150096E0050086E036ADF
:1007DC00026A016A006AD6D7036A026A016A006A71
:1007EC00002A000C031E021E011E001E0C8EC7D711
:1007FC00082AD8B4092AD8B40A2AD8B40B2A045027
:10080C00085CD8A4BFD70550095CD8A4BBD7065048
:10081C000A5CD8A4B7D707500B5CD8A4B3D70B6A23
:10082C000A6A096A086A002AD8B4012AD8B4022ACA
:10083C00D8B4032A03AEA6D70E6A0E88FF0C0E6A34
:0A084C000CA001D0C4DE000F120062
:10085600086A080E0C6E003408360450085ED8B0DC
:0E08660002D00826D89000360C2EF5D71200CE
:10087400086A096A100E0C6E0134083609360450F1
:10088400085E0550D8A0053C095ED8B007D00450D6
:1008940008260550D8B0053C0926D8900036013604
:0608A4000C2EEAD7120041
:1008AA00020E0A01596F56CA5AFA57CA5BFA3CDD58
:1008BA00809831C8E1FF32C8E2FF7A0EE66E2FC88F
:1008CA0000F030C801F054DC31C8E1FF32C8E2FF61
:1008DA0058CAE6FF2FC800F030C801F049DC80880A
:0208EA001200FA
:0808EC000AAE029E000E12008C
:1008F4000B820BAE84EF04F00368026801680068A1
:080904000A360232FF0E120058
:10090C008098800E0A015611006E31C8E1FF32C882
:10091C00E2FF00C0E6FF2FC800F030C801F027DC72
:10092C0031C8E1FF32C8E2FF57CAE6FF2FC800F01A
:0A093C0030C801F01CDC80881200B6
:10094600809831C8E1FF32C8E2FF56CAE6FF2FC8D9
:1009560000F030C801F00EDC31C8E1FF32C8E2FF1A
:10096600E66A2FC800F030C801F004DC8088120067
:100976000B840BAEC6EF04F0010E036E026A016A29
:0A098600006A0A360232FF0E12006A
:100990000134083609360450085E0550D8A0053CDD
:1009A000095E003601360F0E0C6E0134083609362A
:1009B000045000A006D0085E0550D8A0053C095E92
:1009C00005D008260550D8B0053C0926003601366A
:1009D0000C2EEBD700B006D0045008260550D8B036
:0809E000053C0926000012008D
:1009E80048CA04F049CA05F004C0E9FF05C0EAFF97
:1009F800EE5203E0044A052AF7D704C002F005C006
:100A080003F0044A052A4ACA00F04BCA01F00A0159
:100A18004A4B4B2B00C0E9FF01C0EAFF02C0E1FFCF
:100A280003C0E2FFEECFE6FF02C0E9FF03C0EAFF22
:100A3800EE5201E0E2D748CA00F049CA01F01200BC
:100A48000B6A0A6A096A086A0E6A0334083604508F
:100A5800085E0550D8A0053C095E0650D8A0063CA3
:100A68000A5E0750D8A0073C0B5EE86AD8A0010EC2
:100A78000E5E0336070E0C6E0334083609360A3646
:100A88000B360E36045003A012D0085E0550D8A0CD
:100A9800053C095E0650D8A0063C0A5E0750D8A05F
:100AA800073C0B5EE86AD8A0010E0E5E11D008263E
:100AB8000550D8B0053C09260650D8B0063C0A2691
:100AC8000750D8B0073C0B26E86AD8B0010E0E26AE
:100AD80003360C2ED1D70234083609360A360B36BF
:100AE8000E36045003A012D0085E0550D8A0053C6D
:100AF800095E0650D8A0063C0A5E0750D8A0073CFD
:100B08000B5EE86AD8A0010E0E5E11D008260550CB
:100B1800D8B0053C09260650D8B0063C0A2607502E
:100B2800D8B0073C0B26E86AD8B0010E0E2602366C
:100B3800070E0C6E0234083609360A360B360E36A6
:100B4800045002A012D0085E0550D8A0053C095EEA
:100B58000650D8A0063C0A5E0750D8A0073C0B5E9A
:100B6800E86AD8A0010E0E5E11D008260550D8B04C
:100B7800053C09260650D8B0063C0A260750D8B0CE
:100B8800073C0B26E86AD8B0010E0E2602360C2E5A
:100B9800D1D70134083609360A360B360E360450DA
:100BA80002A012D0085E0550D8A0053C095E065088
:100BB800D8A0063C0A5E0750D8A0073C0B5EE86A3E
:100BC800D8A0010E0E5E11D008260550D8B0053CFD
:100BD80009260650D8B0063C0A260750D8B0073C6C
:100BE8000B26E86AD8B0010E0E260136070E0C6EE9
:100BF8000134083609360A360B360E36045001A081
:100C080012D0085E0550D8A0053C095E0650D8A051
:100C1800063C0A5E0750D8A0073C0B5EE86AD8A0DD
:100C2800010E0E5E11D008260550D8B0053C0926E5
:100C38000650D8B0063C0A260750D8B0073C0B2609
:100C4800E86AD8B0010E0E2601360C2ED1D7003432
:100C5800083609360A360B360E36045001A012D073
:100C6800085E0550D8A0053C095E0650D8A0063C91
:100C78000A5E0750D8A0073C0B5EE86AD8A0010EB0
:100C88000E5E11D008260550D8B0053C092606503E
:100C9800D8B0063C0A260750D8B0073C0B26E86AAD
:100CA800D8B0010E0E260036070E0C6E003408363A
:100CB80009360A360B360E36045000A012D0085EEC
:100CC8000550D8A0053C095E0650D8A0063C0A5E2F
:100CD8000750D8A0073C0B5EE86AD8A0010E0E5E4C
:100CE80011D008260550D8B0053C09260650D8B0C2
:100CF800063C0A260750D8B0073C0B26E86AD8B04D
:100D0800010E0E2600360C2ED1D700B00ED004509E
:100D180008260550D8B0053C09260650D8B0063C30
:0C0D28000A260750D8B0073C0B2612002A
:100D34000A014B6B030E4B5D0AE24B514925E16EF0
:100D4400000E4A21E26E200EE66E4B2BF3D74B5178
:100D54004925E16E000E4A21E26EE66A4B074B51CB
:100D640049254C6F000E4A214D6F0A0E046E48CA85
:100D740000F06FDD08C000F0300E00264CCAE1FF21
:100D84004DCAE2FF00C0E6FF0A0E046E48CA00F036
:100D940060DD00C048FA0050000A01E102D04B07B0
:040DA400DED7120084
:100DA8004ACA04F04BCA05F048CA02F049CA03F01F
:100DB8004CCA00F04DCA01F0010E0A014C5F000E4A
:100DC8004D5B005001100FE004C0E9FF05C0EAFFC9
:100DD80002C0E1FF03C0E2FFEECFE6FF024A032AAA
:100DE800044A052AE5D748CA00F049CA01F01200AA
:100DF8000CB03EEF07F00CA2E4EF07F00E6A000E0D
:100E0800026455EF07F0F00E0214D8A420EF07F0A3
:100E1800023A01380F0B02260138F00B016E003838
:100E28000F0B01260038F00B006E08380F0B002658
:100E38000838F00B086E0E84D89002BE39EF07F020
:100E480008360036013602360E2A02BE39EF07F0A0
:100E580008360036013602360E2A02BE39EF07F090
:100E680008360036013602360E2A0E500364DAEFD1
:100E780007F0035E0BBC08AEDFEF07F0D880800EEA
:100E880008640030000E002201220222D8A0DFEF01
:100E980007F0023201320032034AE4EF07F0DFEFD5
:100EA80007F001C002F000C001F008C000F0086AB5
:100EB800000E0E8602648CEF07F0F00E0214D8A420
:100EC80074EF07F0023A01380F0B02260138F00BD5
:100ED800016E00380F0B01260038F00B006E0E84EF
:100EE800D89002BE39EF07F00036013602360E2AD6
:100EF80002BE39EF07F00036013602360E2A02BE6E
:100F080039EF07F00036013602360E2A39EF07F0BE
:100F180001C002F000C001F0006A000E0E960E88B3
:100F28000264B9EF07F0F00E0214D8A4A4EF07F09A
:100F3800023A01380F0B02260138F00B016E0E84BD
:100F4800D89002BE39EF07F0013602360E2A02BEEB
:100F580039EF07F0013602360E2A02BE39EF07F0E4
:100F6800013602360E2A39EF07F001C002F0016A95
:100F7800000E0E860264E9EF07F0F00E0214D8A402
:100F8800C8EF07F0023A0E84D89002BE39EF07F096
:100F980002360E2A02BE39EF07F002360E2A02BECA
:100FA80039EF07F002360E2A39EF07F0010E0C6E02
:100FB800DEDCEDEF07F0020E0C6E94DCEDEF07F0CF
:100FC800040E0C6E93DCEDEF07F0080E0C6E4EEC81
:040FD80003F0120010
:100FDC0048CA04F049CA05F004C002F005C003F089
:100FEC00044A052A4ACA00F04BCA01F00A014A4BCE
:100FFC004B2B00C0E9FF01C0EAFF02C0E1FF03C0B8
:10100C00E2FFEECFE6FF02C0E9FF03C0EAFFEE52BB
:0E101C0001E0E2D748CA00F049CA01F0120014
:10102A00AE0E0A01566F190E576F586B39DCAE0EA9
:10103A000A014825006E190E4921016E00C048FABE
:10104A0001C049FA060E596F00C05AFA01C05BFA8C
:10105A0099EC01F01F0E0A01566F800E576F51DC92
:10106A001F0E0A01566F800E576F18EC03F0080125
:10107A004A51050A04E04A51070A01E007D01C0E4A
:10108A000A01566F0A0E576F18EC03F01F0E0A0179
:10109A00566F080E576F35DC08014A51050A04E0FD
:1010AA004A51070A01E089D00A014D6B4E6B1C0EAA
:1010BA00566F44DC0A0E001600520AE10A014D4B33
:1010CA004E2B030E4E5D02E1E80E4D5D01E2EFD7B5
:1010DA000A011C0E566F32DC00B208D0030E0A0158
:1010EA004E5D02E1E80E4D5D01E266D00A011F0E77
:1010FA00566F080E576F18EC03F0040E0A014825C4
:10110A00566F000E4921576FF9EC02F000C04CFAF5
:10111A000A014A6B100E4A5D4FE21C0E566F0EDC36
:10112A0000A246D00A014CAB43D01F0E566F800E68
:10113A00576F86EC04F01F0E0A01566F800E576F28
:10114A0018EC03F01C0E0A01566F0A0E576F18ECC2
:10115A0003F01F0E0A01566F080E576F86EC04F053
:10116A000A014D6B4E6B1C0E566FA3EC04F00A0E6F
:10117A00001600520AE10A014D4B4E2B030E4E5D3A
:10118A0002E1E80E4D5D01E2EED70A011F0E566F2D
:10119A00080E576F18EC03F0040E0A014825566F23
:1011AA00000E4921576FF9EC02F000C04CFA01D049
:1011BA0003D00A014A2BAED708D00A011F0E566F78
:1011CA00A3EC04F000A601D0F8D71D0E0A01566F51
:1011DA00A3EC04F0060E0016005203E00A014B6B62
:0E11EA0003D00A01010E4B6F4BCA00F0120039
:1011F8000A014A5148254C6F4B5149214D6F010E48
:101208004C5F000E4D5B100E596F48CA5AFA49CA16
:101218005BFA99EC01F0120E0A01596F4CCA5AFA9E
:101228004DCA5BFA99EC01F01F0E0A01566F300E99
:10123800576F86EC04F01F0E0A01566FA3EC04F0FA
:0812480000AA01D0F8D7120042
:1012500048CA56FA49CA57FA4ACA58FA55EC04F02D
:0A1260004BCA56FA35EC03F01200F9
:10126A000A01556B010E4A5F000E4B5B4E530DE0AF
:10127A004B51190802E14A51AD0807E2552BAD0E50
:10128A004A5D536F190E4B59546F555305E0AD0E15
:10129A004F6F190E506F04D04ACA4FFA4BCA50FA10
:1012AA004951501902E14F5148190FE148CA56FAFB
:1012BA0049CA57FAF9EC02F000C058FA4CCA56FA71
:1012CA004DCA57FA55EC04F03CD0100E0A01596F7A
:1012DA0048CA5AFA49CA5BFA99EC01F0120E0A0195
:1012EA00596F555305E0AD0E516F190E526F04D068
:1012FA004ACA51FA4BCA52FA51CA5AFA52CA5BFA44
:10130A0099EC01F0140E0A01596F4CCA5AFA4DCAE7
:10131A005BFA99EC01F01F0E0A01566F100E576F17
:10132A0018EC03F01F0E0A01566F200E576F86EC59
:10133A0004F01F0E0A01566FA3EC04F000AA01D0B4
:10134A00F8D70A0155531AE048514A5D006E4951CF
:10135A004B59016E5351005E5451015A004A012AF9
:10136A0000504C2701504D23010E535D4A6F000E69
:0E137A0054594B6F486B496B556B87D7120067
:10138800020E0A01596F48CA5AFA49CA5BFA99EC1F
:1013980001F0809831C8E1FF32C8E2FF7A0EE66EAC
:1013A8002FC800F030C801F0BDEC00F00A014C5124
:1013B8004D1118E031C8E1FF32C8E2FF4ACAE9FF1F
:1013C8004BCAEAFFEECFE6FF2FC800F030C801F0A5
:1013D800BDEC00F00A014A4B4B2B010E4C5F000E8E
:0813E8004D5BE4D78088120080
:1013F000809831C8E1FF32C8E2FF7A0EE66E2FC84E
:1014000000F030C801F0BDEC00F04ACA00F04BCA51
:1014100001F0010E0A014A5F000E4B5B0050011003
:1014200014E031C8E1FF32C8E2FF48CAE9FF49CA07
:10143000EAFFEECFE6FF2FC800F030C801F0BDECA8
:0E14400000F00A01484B492BE0D780881200CB
:10144E00809831C8E1FF32C8E2FF7A0EE66E2FC8EF
:10145E0000F030C801F0BDEC00F031C8E1FF32C839
:10146E00E2FF49CAE6FF2FC800F030C801F0BDEC1C
:10147E0000F031C8E1FF32C8E2FF48CAE6FF2FC8CC
:0E148E0000F030C801F0BDEC00F080881200C4
:10149C0048CA02F049CA03F002C000F003C001F0D0
:1014AC00024A032A00C0E9FF01C0EAFFEE5201E044
:1014BC00F3D70A014851025C006E49510358016E82
:0A14CC00010E005E000E015A12002E
:1014D600000E006E0A014B1908E100504A1905E199
:1014E6000050491902E14851000A0EE14CCAE1FFD9
:1014F6004DCAE2FF300EE66E010E4C25E16E000E7F
:101506004D21E26EE66AC3D0800E4B19006E800E46
:10151600005C08E1000E4A5D05E1000E495D02E14E
:10152600000E485D1BE248CA00F049CA01F04ACAEB
:1015360002F04BCA03F0FF0E046EFF0E056E066E38
:10154600076E55EC03F000C048FA01C049FA02C024
:101556004AFA03C04BFA010E506F01D0506B4CCAC9
:10156600E1FF4DCAE2FFE66A4E6B0A01800E006E8D
:10157600800E4B19005C08E14A51000805E149510B
:10158600000802E1485100085EE24E51010F4F6F1C
:101596004F51000815E24F514C25E16E000E4D21CA
:1015A600E26E4F05006E016A000E015A00504C258E
:1015B600E96E01504D21EA6EEECFE6FF4F07E8D700
:1015C6000A0E046E000E056E066E076E48CA00F01F
:1015D60049CA01F04ACA02F04BCA03F07EEC03F096
:1015E60008C000F009C001F00AC002F00BC003F009
:1015F6004CCAE1FF4DCAE2FF00C0E6FF4CCAE9FF54
:101606004DCAEAFF4CCAE1FF4DCAE2FF300EEE2694
:101616000A014E2B0A0E046E000E056E066E076E4C
:1016260048CA00F049CA01F04ACA02F04BCA03F0A0
:101636007EEC03F000C048FA01C049FA02C04AFA3B
:1016460003C04BFA92D70A01505321E04E51010FC5
:101656004F6F4F51000815E24F514C25E16E000EB9
:101666004D21E26E4F05006E016A000E015A0050D0
:101676004C25E96E01504D21EA6EEECFE6FF4F078D
:10168600E8D74CCAE1FF4DCAE2FF2D0EE66E120006
:101696000A014C6B050E4C5D0AE24C514A25E16E7F
:1016A600000E4B21E26E200EE66E4C2BF3D74C510A
:1016B6004A25E16E000E4B21E26EE66A4C074C515C
:1016C6004A254D6F000E4B214E6F0A0E046E000E1A
:1016D600056E48CA00F049CA01F03AEC04F008C0A9
:1016E60000F009C001F0300E00264DCAE1FF4ECAD7
:1016F600E2FF00C0E6FF0A0E046E000E056E48CA41
:1017060000F049CA01F03AEC04F000C048FA01C002
:1017160049FA000E011802E1000E001801E102D09C
:061726004C07CDD71200B4
:10172C000B6A0A6A096A00500402F4CF09F0F3CF7D
:10173C0008F001500502F4CF0BF0F3CF0AF0005083
:10174C000502F3500926F4500A22E86A0B220150D4
:10175C000402F3500926F4500A22E86A0B2208C04E
:10176C0000F009C001F00AC002F00BC003F0120037
:10177C00809831C8E1FF32C8E2FF7A0EE66E2FC8BE
:10178C0000F030C801F0BDEC00F038CA00F039CAE6
:10179C0001F0010E0A01385F000E395B0050011098
:1017AC001CE031C8E1FF32C8E2FF35CAF6FF36CA89
:1017BC00F7FF37CAF8FF0900F5CF00F000C0E6FFCD
:1017CC002FC800F030C801F0BDEC00F0010E0A018A
:0E17DC003527000E36233723D8D78088120019
:1017EA00036A046A080E045C22E203C001F035CAE7
:1017FA0000F0015004E000360090FF0FFBD7800E86
:10180A000014016E01C002F00150800AD8B480822F
:10181A000250000AD8B480920000000000008094B0
:10182A000000000000008084032A042ADBD712008B
:10183A000A013551000A03E17E0E3611016E355157
:10184A00010A03E1180E3611016E3551020A03E14D
:10185A00B60E3611016E3551030A03E1BC0E36117C
:10186A00016E3551040A03E1D80E3611016E355165
:10187A00050A03E1EC0E3611016E3551060A03E141
:10188A00EE0E3611016E3551070A03E1380E361194
:10189A00016E3551080A03E1FE0E3611016E35510B
:1018AA00090A03E1FC0E3611016E35510A0A03E1F9
:1018BA00F20E3611016E35510B0A03E1720E361122
:1018CA00016E35510C0A03E1780E3611016E35515D
:1018DA000D0A03E1E60E3611016E35510E0A03E1D7
:1018EA00040E3611016E35510F0AD8B4016A35510A
:1018FA00100A02E1010E016E3551110A02E1800E51
:08190A00016E01C000F01200A3
:101912000C6A0E6A0250D8A4A2EF0CF001C002F0C9
:1019220000C001F0006A0E860250D8A4A2EF0CF0AB
:1019320001C002F0016A0E960E880250D8B4B4EFCC
:101942000CF00E50035ED8A4D8A0BAEF0CF0D890D9
:1019520002BEC0EF0CF0003601360236032EA9EFAC
:101962000CF0BAEF0CF0010E0C6E4EEC03F0C4EF6B
:101972000CF0020E0C6EBBEC04F0C4EF0CF0040E83
:081982000C6E76EC04F012007B
:10198A000B800BAED1EF0CF0026A0AAEFF0E026EAC
:0C199A00016E006E0A360232FF0E1200D1
:1019A6000A013B6B3C6B000E3C5D02E10A0E3B5D9F
:1019B6000BE23B513925E16E3C513A21E26E200E95
:1019C600E66E3B4B3C2BEFD73B513925E16E3C5144
:1019D6003A21E26EE66A010E3B5F000E3C5B3B512C
:1019E60039253D6F3C513A213E6F0A0E046E000EBA
:1019F600056E066E076E35CA00F036CA01F037CAA4
:101A060002F038CA03F024EC05F008C000F009C063
:101A160001F00AC002F00BC003F0300E00263DCAEA
:101A2600E1FF3ECAE2FF00C0E6FF0A0E046E000EAA
:101A3600056E066E076E35CA00F036CA01F037CA63
:101A460002F038CA03F024EC05F000C035FA01C0F4
:101A560036FA02C037FA03C038FA000E046E0318CD
:101A660008E10450021805E10450011802E1005093
:101A7600000A01E105D0010E3B5F000E3C5BAFD7CB
:021A860012004C
:101A88000A013851FF0A02E1FF0E371907E0596BC6
:101A980037CA5AFA38CA5BFA99EC01F0809831C80B
:101AA800E1FF32C8E2FF3A0EE66E2FC800F030C8F8
:101AB80001F0BDEC00F039CA00F03ACA01F0010E9D
:101AC8000A01395F000E3A5B0050011015E031C879
:101AD800E1FF32C8E2FFE66A2FC800F030C801F023
:101AE800BDEC00F035CAE1FF36CAE2FF00C0E6FFF0
:0C1AF8000A01354B362BDFD78088120026
:101B040035CA48FA36CA49FA370E0A014A6F080E2E
:101B14004B6F040E4C6F000E4D6FD4EC06F0376B18
:101B24003751030821E337513525026E000E362163
:101B3400036E02C0E9FF03C0EAFFEECF01F05F0EBF
:101B4400E96E070EEA6E3751E926D8B0EA2AFF0E8D
:101B5400EE18006E0150001202C0E1FF03C0E2FF64
:0A1B640000C0E6FF372BDCD71200AB
:101B6E0039CA01F03ACA02F0010E0A01395F000EBD
:101B7E003A5B000E021802E1000E01181FE035CA92
:101B8E00E9FF36CAEAFF37CAD9FF38CADAFFEE5084
:101B9E00DE180FE035CAE9FF36CAEAFF37CAD9FFA9
:101BAE0038CADAFFDE50EE5C006E016A000E015A92
:101BBE0007D0354B362B374B382BD2D7006A016AFC
:021BCE00120003
:101BD000AF0E0A01486F190E496F35CA4AFA36CA64
:101BE0004BFA060E4C6F000E4D6FC4EC09F0210E3F
:101BF000486F080E496F060E4A6F000E4B6FF8ECE7
:101C000009F0000E486F080E496F21DC1C0E0A0116
:101C10003D25406F000E3E21416F000E486F450E7E
:101C2000496F15DC40CA48FA41CA49FA10DCA7C717
:101C300048FAA8C749FA0BDC0701A74BA82B0A01F1
:101C4000486B496B04DC110E0A01486F800E496F26
:101C500027EC0AF00A01486B496B27EC0AF0370EB3
:101C60000A01486F080E496F040E4A6F000E4B6F51
:101C7000F8EC09F037CA48FA38CA49FA040E4A6F34
:101C8000000E4B6FF8EC09F0080E3D25406F000E7A
:101C90003E21416F39CA48FA3ACA49FA27EC0AF09C
:101CA0003BCA48FA3CCA49FA27EC0AF040CA48FA4B
:101CB00041CA49FA27EC0AF00A01486B496B27EC44
:101CC0000AF0BD0E0A01486F190E496F140E4A6FD3
:101CD000000E4B6FFCEC08F0160E0A01566FA3ECD9
:101CE00004F000C042FA170E0A01566FA3EC04F08C
:101CF00000C04AFAC70E0A01486F190E496F42CA5E
:101D00004BFA28EC09F0010E0A0140153F6FD90E7D
:101D10003D25566F190E3E21576F586B55EC04F058
:101D2000C90E0A01486F190E496FD10E4A6F190E7C
:101D30004B6FD90E3D254C6F190E3E214D6F3F5113
:101D40004C27000E4D234E6B35EC09F0D90E3D2586
:101D5000486F190E3E21496F3F514827000E492315
:101D6000080E4827000E49234A6B110E4B6F28ECD2
:101D700009F041CA56FA35EC03F040CA56FA35EC80
:101D800003F0D10E0A01486F190E496F0C0E402561
:101D90004A6F000E41214B6F3F514A27000E4B23E3
:101DA000FCEC08F0160E0A01566FA3EC04F000C01C
:101DB00042FA170E0A01566FA3EC04F000C04AFA6B
:101DC000D70E0A01486F190E496F42CA4BFA28EC28
:101DD00009F02A0E0A013D25486F000E3E21496F89
:061DE00015EC08F01200F2
:101DE6000450000A08E10550000A05E1FF0E006EE6
:101DF6007F0E016E58D00D6A096A086A01500010FC
:101E0600D8B4000C015005180A6E0ABE0D1E0B6AE6
:101E160005AE05D0041E051E042AD8B4052A01AE57
:101E260005D0001E011E002AD8B4012A0150051053
:101E36000A6E0ABE10D0C8EC04F00BB020D00DAE6E
:101E4600000C001E011E002AD8B4012A081E091E15
:101E5600082AD8B4092A000C05AE0DD001BE07D059
:101E66000150096E0050086E016A006AE8D7016ADF
:101E7600006A002A000C011E001E0B2ADDD7082A64
:101E8600D8B4092A0450085CD8A4D9D70550095CEF
:101E9600D8A4D5D7096A086A002AD8B4012A01AE9F
:081EA600CED70000FF0C120072
:101EAE00809831C8E1FF32C8E2FF3A0EE66E2FC8C5
:101EBE0000F030C801F0BDEC00F031C8E1FF32C8CF
:101ECE00E2FFE66A2FC800F030C801F0BDEC00F06A
:041EDE0080881200E6
:101EE20035CA02F036CA03F038CA00F039CA01F026
:101EF200010E0A01385F000E395B0050011009E043
:101F020002C0E1FF03C0E2FF37CAE6FF024A032A2A
:0C1F1200EBD735CA00F036CA01F012000F
:101F1E000A0139A118D135CA48FA36CA49FA040E4F
:101F2E003725E96E000E3821EA6EEECF03F003C0BE
:101F3E0000F0000E016E0036009001364A0E0024AD
:101F4E00E96E010E0120EA6EEECF4AFAEECF4BFAA1
:101F5E00EEEC07F0040E3725E96E000E3821EA6E1E
:101F6E00EECFFFF535CA48FA36CA49FA790E4A6FEE
:101F7E00010E4B6FF4EC04F0030E3725E96E000EE4
:101F8E003821EA6EEECF48FA3A0E496F0A0E4A6FC2
:101F9E009AEC06F0030E3725E96E000E3821EA6E34
:101FAE00EECF73F835CA48FA36CA49FA3B0E4A6F75
:101FBE000A0E4B6FF4EC04F035CA48FA36CA49FAE9
:101FCE00770E4A6F010E4B6FF4EC04F035CA48FAE7
:101FDE0036CA49FA050E3725E96E000E3821EA6E2B
:101FEE00EECF03F003C000F0000E016E003600903D
:101FFE0001365B0E0024E96E010E0120EA6EEECF73
:10200E004AFAEECF4BFAF4EC04F0050E3725E96EE2
:10201E00000E3821EA6EEECF79F835CA48FA36CA84
:10202E0049FA750E4A6F010E4B6FF4EC04F0060E72
:10203E003725E96E000E3821EA6EEECF48FAEECF64
:10204E0049FA3A0E4A6F0A0E4B6F4BEC0BF0060E26
:10205E003725E96E000E3821EA6EEECF44FAEECF48
:10206E0045FA44CAFDF545CAFEF5E80E046E030EA8
:10207E00056E44CA00F045CA01F03AEC04F000C007
:10208E00FAF5000E016EE80E046E030E056E96EC68
:10209E000BF000C042FA01C043FA4251445D006E9B
:1020AE0043514559016E640E046E000E056E3AECF6
:1020BE0004F000C0FBF542CA02F0000E036E02509F
:1020CE00445D026E03504559036E640E0002F3CF59
:1020DE0040FAF4CF41FA4051025C006E4151035870
:1020EE00016E0A0E046E000E056E3AEC04F000C08E
:1020FE00F9F54251445D026E4051025E0A0E000235
:10210E00F3CF01F00150025C006E00C0F8F501C083
:10211E0076F8005001240801766F35CA48FA36CA9F
:10212E0049FA3B0E0A014A6F0A0E4B6FF4EC04F0AB
:10213E0035CA48FA36CA49FA040E4A6F010E4B6F79
:10214E00F4EC04F005D035CAE1FF36CAE2FFE66AC8
:10215E0039A37AD0020E3725E96E000E3821EA6EC9
:10216E00EECF48FA3A0E496F0A0E4A6F9AEC06F015
:10217E00020E3725E96E000E3821EA6EEECF7BF89F
:10218E0035CA48FA36CA49FA3B0E4A6F0A0E4B6FE9
:10219E00F4EC04F035CA48FA36CA49FA110E4A6F01
:1021AE00010E4B6FF4EC04F0010E3725E96E000EB4
:1021BE003821EA6EEECF48FA3A0E496F0A0E4A6F90
:1021CE009AEC06F0010E3725E96E000E3821EA6E04
:1021DE00EECF80F83B51200A02E1300E3B6F35CA3C
:1021EE0048FA36CA49FA3B0E4A6F0A0E4B6FF4ECA8
:1021FE0004F035CA48FA36CA49FA130E4A6F010E70
:10220E004B6FF4EC04F037CAE9FF38CAEAFFEECFA1
:10221E0048FA3A0E496F0A0E4A6F9AEC06F037CA20
:10222E00E9FF38CAEAFFEECF7DF83B51200A02E102
:10223E00300E3B6F35CA48FA36CA49FA3B0E4A6F22
:10224E000A0E4B6FF4EC04F039A535D035CA48FAB6
:10225E0036CA49FA0C0E4A6F010E4B6FF4EC04F0BD
:10226E00800E000A006E800E03013519005C0BE231
:10227E0035CA48FA36CA49FA060E0A014A6F010EE5
:10228E004B6FF4EC04F035CA48FA36CA49FA4EECF4
:10229E000AF0005035254C6F015036214D6F35C375
:1022AE0048FA000E030135BFFF0E0A01496F4A6F4F
:0822BE004B6F6BEC0AF01200FB
:0822C6000B6A0B86FF0E1200EB
:1022CE00025006180E6E086A096A0B6A03500764FC
:1022DE005AEF12F006500A6E068E028E03500B6EE7
:1022EE000750036E000E0B64AAEF11F00B50075E41
:1022FE00D8B44BEF12F0070E076419EF12F0075E19
:10230E0000C008F001C000F002C001F0026A074EE2
:10231E004BEF12F00764EEEF11F0075E00C008F00D
:10232E0001C000F0016A074E4BEF12F00764CCEFCC
:10233E0011F0075E00C008F0006A074E4BEF12F076
:10234E000764B3EF11F00AC002F005C001F004C03B
:10235E0000F0086A77EF13F0030E0764BEEF11F07A
:10236E00075E08380F0B086E074E4BEF12F0D89031
:10237E000832074E4BEF12F0D8900832074E4BEF53
:10238E0012F0D89008324BEF12F0030E0764DDEF17
:10239E0011F0075E08380F0B086E0038F00B082698
:1023AE0000380F0B006E074E4BEF12F0D890003234
:1023BE000832074E4BEF12F0D89000320832074E1B
:1023CE004BEF12F0D890003208324BEF12F0030EA2
:1023DE00076405EF12F0075E08380F0B086E003821
:1023EE00F00B082600380F0B006E0138F00B00269C
:1023FE0001380F0B016E074E4BEF12F0D8900132E1
:10240E0000320832074E4BEF12F0D89001320032F4
:10241E000832074E4BEF12F0D890013200320832DC
:10242E004BEF12F0030E076436EF12F0075E08381A
:10243E000F0B086E0038F00B082600380F0B006EDD
:10244E000138F00B002601380F0B016E0238F00B2D
:10245E00012602380F0B026E074E4BEF12F0D8908A
:10246E000232013200320832074E4BEF12F0D89092
:10247E000232013200320832074E4BEF12F0D89082
:10248E000232013200320832096A000E0EAE3FEF00
:10249E0013F0081E001E011E021E082A0022012231
:1024AE0002223FEF13F00750D8A460EF12F077EF3F
:1024BE0013F0096A02C00AF0028E068E0750035C02
:1024CE00076ED8B432EF13F0070E076400EF13F067
:1024DE00075E0450096E0550046E0650056E066ABE
:1024EE00074E32EF13F0070E0764D5EF12F0075EBA
:1024FE000450096E0550046E056A074E32EF13F054
:10250E00070E0764B3EF12F0075E0450096E046AFB
:10251E00074E32EF13F0070E07649AEF12F00AC05F
:10252E0002F077EF13F0030E0764A5EF12F0075ECB
:10253E0009380F0B096E074E32EF13F0D89009329F
:10254E00074E32EF13F0D8900932074E32EF13F0E8
:10255E00D890093232EF13F0030E0764C4EF12F075
:10256E00075E09380F0B096E0438F00B0926043884
:10257E000F0B046E074E32EF13F0D890043209326F
:10258E00074E32EF13F0D89004320932074E32EF75
:10259E0013F0D8900432093232EF13F0030E0764B1
:1025AE00ECEF12F0075E09380F0B096E0438F00BD2
:1025BE00092604380F0B046E0538F00B0426053877
:1025CE000F0B056E074E32EF13F0D8900532043222
:1025DE000932074E32EF13F0D89005320432093229
:1025EE00074E32EF13F0D89005320432093232EF33
:1025FE0013F0030E07641DEF13F0075E09380F0B7F
:10260E00096E0438F00B092604380F0B046E0538DA
:10261E00F00B042605380F0B056E0638F00B052659
:10262E0006380F0B066E074E32EF13F0D8900632B7
:10263E00053204320932074E32EF13F0D8900632CB
:10264E00053204320932074E32EF13F0D8900632BB
:10265E00053204320932086A000E0EAE3FEF13F057
:10266E00091E041E051E061E092A04220522062224
:10267E00095008260450002205500122065002225D
:10268E000EBE56EF13F0D8A065EF13F002320132F2
:10269E0000320832033E65EF13F071EF13F0D8B03D
:1026AE006BEF13F0000E081E001E011E021E082AFC
:1026BE000022012202220A7E6BEF13F0010E0C6E35
:1026CE00FCEC06F079EF13F0020E0C6EFCEC06F04B
:1026DE0079EF13F0040E0C6E7AEC04F079EF13F030
:0626EE00000E0C6E12004C
:1026F40035CAE1FF36CAE2FFE66A0A01396B040E05
:10270400395D2FE239513725E96E000E3821EA6E22
:10271400EECF48FA000E496F4A6F4B6F000E496FB7
:102724004A6F4B6F3A0E4C6F0A0E4D6F6BEC0AF00A
:1027340035CA48FA36CA49FA3A0E4A6F0A0E4B6F3E
:10274400F4EC04F03951030A0AE035CA48FA36CAEF
:1027540049FABB0E4A6F030E4B6FF4EC04F0392BAD
:04276400CED71200BA
:102768000A013551390806E3300E355D03E3010EE1
:08277800006E01D0006A12009E
:102780000F0E0A013515016E01C035FA0A0E015C03
:1027900004E3370E3525006E03D0300E3525006E6C
:0227A000120025
:1027A2003CC1E9FF3DC1EAFFEE50000A08E0000E1D
:1027B20001013D1902E1000E3C1901E005D00101C1
:1027C200690E3C6F060E3D6F3CC148FA3DC149FAA5
:1027D2004EEC0AF000C036FA100E005C23E2370E0F
:1027E200486F0A0E496F3CC14AFA3DC14BFA36CADC
:1027F2004CFA000E4D6FD4EC06F0370E486F0A0EFD
:10280200496F36514827D8B0492B690E4A6F060ED8
:102812004B6F365110084C6F4D6B000E4D5BD4EC74
:1028220006F00ED0370E486F0A0E496F3CC14AFAC5
:102832003DC14BFA100E4C6F000E4D6FD4EC06F0FA
:04284200476B1200CE
:102846000A01396B3A6B809831C8E1FF32C8E2FF62
:102856007A0EE66E2FC800F030C801F0BDEC00F02D
:1028660035CA00F036CA01F037CA02F0010E0A0175
:102876003527000E3623372300C0F6FF01C0F7FFC9
:1028860002C0F8FF0900F5CF00F000C038FA005288
:1028960010E031C8E1FF32C8E2FF38CAE6FF2FC8B0
:1028A60000F030C801F0BDEC00F00A01394B3A2BBC
:0E28B600D7D7808839CA00F03ACA01F0120064
:1028C400BFC7E1FFC0C7E2FF35CAE6FFBDC700F0DE
:0A28D400BEC701F0BDEC00F01200D9
:1028DE00640E046E64C400F02BEC04F000C00FFA1A
:1028EE00640E0002F3CF00F0F4CF01F000500401AB
:1028FE00645D0A01126F01C013FA000E13570A0E1F
:10290E00046E000E056E12CA00F013CA01F0F3EC4D
:10291E000EF000C010FA0A0E0002F3CF00F00050C5
:10292E000A01125D116F80960F0E356F366B1DEC1E
:10293E000CF000C035FAF5EC0BF00F0E0A01356FF6
:10294E00366B1DEC0CF000C035FAF5EC0BF00F0EEB
:10295E000A01356F366B1DEC0CF000C035FAF5EC44
:10296E000BF011CA35FA0A01366B1DEC0CF000C0E3
:10297E0035FAF5EC0BF010CA35FA0A01366B1DEC80
:10298E000CF000C035FAF5EC0BF00FCA35FA0A015F
:10299E00366B1DEC0CF000C035FAF5EC0BF08086B2
:1029AE000400520E0B6E2B0E0C6E000E0D6E0D2EC5
:1029BE00FED70C2EFCD70B2EFAD700000400809603
:1029CE000F0E0A01356F366B1DEC0CF000C035FA98
:1029DE00F5EC0BF00F0E0A01356F366B1DEC0CF09B
:1029EE0000C035FAF5EC0BF00F0E0A01356F366BA1
:1029FE001DEC0CF000C035FAF5EC0BF00F0E0A01D1
:102A0E00356F366B1DEC0CF000C035FAF5EC0BF0A3
:102A1E000F0E0A01356F366B1DEC0CF000C035FA47
:102A2E00F5EC0BF00F0E0A01356F366B1DEC0CF04A
:102A3E0000C035FAF5EC0BF080860400150E0B6E17
:102A4E004B0E0C6EBE0E0D6E0D2EFED70C2EFCD741
:0A2A5E000B2EFAD70000040012004E
:102A68005F0E0A01486F070E496F0FCA4AFA10CA6B
:102A78004BFA040E4C6F000E4D6FD4EC06F0570E57
:102A8800486F070E496F11CA4AFA12CA4BFA040E68
:102A98004C6F000E4D6FD4EC06F05B0E486F070EBE
:102AA800496F13CA4AFA14CA4BFA040E4C6F000E47
:102AB8004D6FD4EC06F0970E356F070E366F82EC2B
:042AC8000DF01200FB
:102ACC0098D0690E0A01356F060E366F376BC80E3B
:102ADC00386F000E396F71EC0FF00301BA5345E0FB
:102AEC00690E0A01486F060E496FFA0E4A6F000E06
:102AFC004B6FEEEC07F0690E486F060E496F4EEC0B
:102B0C000AF0690E0024356F060E0120366F870E11
:102B1C00376F080E386F010E396F8FEC0FF0690E9E
:102B2C00486F060E496F820E4A6F000E4B6FF4EC25
:102B3C0004F0690E486F060E496F4EEC0AF0690EF0
:102B4C000024356F060E0120366F610E376F040EB0
:102B5C00386FCADD690E486F060E496F2F0E4A6F2B
:102B6C00000E4B6FF4EC04F026D00A01690E486F8E
:102B7C00060E496F520E4A6F000E4B6FEEEC07F0CB
:102B8C00690E486F060E496F4EEC0AF0690E002470
:102B9C00356F060E0120366F610E376F040E386FDD
:102BAC00A3DD690E486F060E496F150E4A6F010EB4
:102BBC004B6FF4EC04F00FCA35FAEDDD25D0690E3D
:102BCC00356F060E366F870E376F080E386F010E95
:102BDC00396F8FEC0FF018D0690E356F060E366F0B
:102BEC00870E376F080E386F020E396F8FEC0FF0AF
:102BFC000BD00A011051000AD8B463D71051010A46
:0A2C0C00DEE01051020AE8E01200B9
:062C16000501536B1200E2
:102C1C000B6A0C6A0A6A0350D8B458EF16F0028E8D
:102C2C008E0E035E03BE20EF16F0D8B420EF16F024
:102C3C005CEF16F0036C080E035CD8A037EF16F0AF
:102C4C00036E013602C001F0026A080E035CD8A0C4
:102C5C0037EF16F00136016A0350D8A4D89041EF33
:102C6C0016F00350D8B441EF16F0D890023201326E
:102C7C00032E3BEF16F00BBC01A04EEF16F0D8A0C4
:102C8C004EEF16F0012AD8B4022A02BE6BEF16F0F2
:102C9C000AAE71EF16F0021E011E012AD8B4022AE8
:102CAC0071EF16F0026A016A71EF16F00B800BAE31
:102CBC0075EF16F0026A0AAE75EF16F0FF0E026E93
:102CCC00016E0A36023275EF16F0010E0C6EC5EC71
:102CDC000CF077EF16F0000E0C6E77EF16F0FF0E7F
:0C2CEC000C6E0150006E0250016E1200D0
:102CF8000A6A0350D8A40A800750D8A40A820A5046
:102D0800D8B4DFEF16F0030AD8B498EF16F00AB07B
:102D180093EF16F006AEDDEF16F0DBEF16F002AE1D
:102D2800DBEF16F0DDEF16F00250800B0A6E029E04
:102D38000650800B069E0A18D8B4A9EF16F00A5060
:102D4800D8B4DBEF16F0DDEF16F00750035CD8B40B
:102D5800B3EF16F0D8A0CFEF16F0D5EF16F0065067
:102D6800025CD8B4BDEF16F0D8A0CFEF16F0D5EFBF
:102D780016F00550015CD8B4C7EF16F0D8A0CFEF15
:102D880016F0D5EF16F00450005CD8B4DFEF16F05B
:102D9800D8B0D5EF16F00A52D8B4DDEF16F0DBEF55
:102DA80016F00A52D8B4DBEF16F0DDEF16F0D88033
:0E2DB8001200D8901200D880D88412001200A9
:102DC600F90E0A01126F000E136F020E596FD90E1B
:102DD6005A6F190E5B6F99EC01F09E0E0A01356F62
:102DE600E00E366F000E376F0C0E386F000E396F1F
:102DF600BEEC0BF00F51030A0DE110530BE02B0E46
:102E0600486F080E496F040E4A6F000E4B6FF8ECC0
:102E160009F00AD0116B040E115D06E2566B35EC13
:102E260003F00A01112BF7D7116B0C0E115D06E2A8
:102E3600566B35EC03F00A01112BF7D7210E486FBC
:102E4600080E496F060E4A6F000E4B6FF8EC09F03C
:102E5600116BCA0E115D06E2566B35EC03F00A01E2
:102E6600112BF7D7140E356FE30E366F000E376F42
:102E7600060E386F000E396FBEEC0BF00FCA56FA0D
:102E860035EC03F00A010F51030A1AE1105318E159
:102E9600360E566F35EC03F0040E0A01566F35EC0C
:102EA60003F03D0E0A01486F080E496F040E4A6F83
:102EB600000E4B6FF8EC09F0060E1227000E1323D6
:102EC6001F0E356FE30E366F000E376F050E386F27
:102ED600000E396FBEEC0BF00F51030A23E11053BD
:102EE60021E1320E566F35EC03F0040E0A01566FDF
:102EF60035EC03F00A01116B040E115D0FE22B0E87
:102F0600E96E080EEA6E1151E926D8B0EA2AEECF2C
:102F160056FA35EC03F00A01112BEED7060E1227EE
:102F2600000E1323FF0E566F35EC03F0F50E0A0163
:102F3600356F010E366FF50E376F010E386F440E82
:102F4600396F000E3A6F430E3B6F000E3C6F12CA8C
:0C2F56003DFA13CA3EFAE8EC0DF0120040
:102F62000050086E0150006E016A026A036A0B6A21
:102F72000C6A960E036E0A6A00C001F008C000F0E7
:0A2F8200086A026A89EC0CF01200E4
:082F8C00067E67EC11F0120053
:102F94000A01176B186B0FCA19FA10CA1AFA11CA68
:102FA4001BFA12CA1CFA800E1219006E800E005C05
:102FB40008E1000E115D05E1000E105D02E1000E56
:102FC4000F5D10E2010E176F000E186F196B1A6B6C
:102FD4001B6B1C6B0F51195F10511A5B11511B5B5A
:102FE40012511C5B19CA35FA1ACA36FA1BCA37FAC7
:102FF4001CCA38FA13CA39FA14CA3AFAD3EC0CF0D8
:103004000B0E156F000E166F000E006E1651005C4D
:1030140002E11551000819E215511325E16E16510C
:103024001421E26E010E155D006E000E1659016E3C
:1030340000501325E96E01501421EA6EEECFE6FF2D
:10304400010E155F000E165BDFD713CAE1FF14CA29
:10305400E2FF200EE66E175118111AE0156B166B7D
:1030640015511325E96E16511421EA6EEE50200A0B
:1030740003E1154B162BF4D7010E155F000E165BFA
:1030840015511325E16E16511421E26E2D0EE66ED4
:02309400120028
:10309600A6A202D00000FCD7A69C10CAAAFF0FCA9F
:1030A600A9FF11CAA8FFA69EA684F2CF00F0F29E41
:1030B600550EA76EAA0EA76EA68200BE02D0F29E7D
:1030C60001D0F28EA694A1B802D00000FCD7A19838
:0230D6001200E6
:1030D8000A01126B136B809831C8E1FF32C8E2FF16
:1030E8007A0EE66E2FC800F030C801F0BDEC00F093
:1030F8000FCA00F010CA01F00A010F4B102B00C0D4
:10310800E9FF01C0EAFFEECF00F000C011FA00525B
:1031180010E031C8E1FF32C8E2FF11CAE6FF2FC84C
:1031280000F030C801F0BDEC00F00A01124B132B7F
:0E313800DFD7808812CA00F013CA01F012001F
:10314600570E0A01356FDE0E366F000E376F23EC11
:1031560014F000C012FA01C013FA0F51300F566F67
:1031660035EC03F00A01124B132BAB0E356FDE0E56
:10317600366F000E376F23EC14F000501227015003
:103186001323116B020E115D45E21F0E356FE20E21
:10319600366F000E376F23EC14F0005012270150E3
:1031A6001323115110190CE16E0E356FE10E366FB7
:1031B600000E376F23EC14F0005012270150132332
:1031C600910E356FE30E366F000E376F23EC14F059
:1031D6000050122701501323030E006E000E016EDD
:1031E60011CA04F0000E056E96EC0BF0330E0024A7
:1031F600E96E010E0120EA6EEECF35FAEECF36FA11
:10320600EECF37FA23EC14F00050122701501323A7
:10321600112BB8D7CE0E356FE00E366F000E376F16
:1032260023EC14F0125100261351012200C012FAA9
:0632360001C013FA1200B2
:0A323C00809A010E0101396F1200A3
:103246000A01126B0FCAE9FF10CAEAFFEECF11FAA4
:103256001151000A0FE011CA35FA62EC14F00A01A6
:10326600122B12510F25E96E000E1021EA6EEECFD9
:0632760011FAEED7120070
:10327C000FCAE9FF10CAEAFFEE5211E00FCAE9FFCC
:10328C0010CAEAFF11CAD9FF12CADAFFEE50DE18D3
:10329C0006E10A010F4B102B114B122BE9D70FCA69
:1032AC00E9FF10CAEAFF11CAD9FF12CADAFFDE50D1
:0C32BC00EE5C006E016A000E015A120068
:1032C8000FCAE9FF10CAEAFFEECF11FA000E0A0191
:1032D800126F000E126F000E121902E1200E111962
:1032E80007E0000E121902E1090E111901E003D0DE
:1032F8000F4B102BE5D7136B146B156B166B000E69
:10330800121902E12D0E111905E1154B162B0F4B61
:10331800102B08D0000E121902E12B0E111902E130
:103328000F4B102B0FCAE9FF10CAEAFFEECF11FAB4
:10333800000E126F000E126F11CA35FAB4EC13F0BA
:10334800005219E013CA00F014CA01F00A0E046E04
:10335800000E056E96EC0BF0300E115D026E000E3D
:103368001259036E02500024136F03500120146F8A
:103378000F4B102BD7D71551161108E01351000821
:10338800006E14CA01F0000E015604D013CA00F0F2
:0633980014CA01F012004E
:10339E00086A096A000E0762036454EF1AF00250BD
:1033AE0006180A6E075003267E0ED8A0E5EF19F018
:1033BE00035ED8B059EF1AF0E9EF19F0035ED8A00A
:1033CE005EEF1AF0028E068E02C00EF001C00BF0F8
:1033DE0000C00DF000500402F4CF0CF001500502B5
:1033EE00F4CF00F0F3CF08F00402F3500C26F450A3
:1033FE000822000E00220D500502F3500C26F45048
:10340E000822000E002202500402F3500826F45047
:10341E00002202500502016A000E0122F35000261E
:10342E00F45001220D500602F3500826F4500022EB
:10343E00026A000E012202220B500602F3500026F1
:10344E00F4500122000E02220E500602F350012605
:10345E00F450022202BE3CEF1AF008360036013656
:10346E0002360306D8B45EEF1AF04FEF1AF0D8808A
:10347E00800E08640030000E002201220222D8A025
:10348E004FEF1AF0023201320032034A59EF1AF0AE
:10349E000AAE029E000E61EF1AF0010E4EEC03F022
:1034AE0061EF1AF0020E7AEC04F061EF1AF0040EDE
:0634BE00BBEC04F012005B
:1034C4000B6A0C6A086A0350D8B4E6EF1AF002C01B
:1034D4000AF0028E9E0E035E03AED6EF1AF0036C62
:1034E400080E035CD8A0A3EF1AF0036E083600C0E0
:1034F40008F001C000F002C001F0026A080E035C8B
:10350400D8A0A3EF1AF0036E083600C008F001C07B
:1035140000F0016A080E035CD8A0A3EF1AF0036E52
:10352400083600C008F0006A080E035CD8A0A3EFB8
:103534001AF0036E0836086A0350D8A4D890AFEF87
:103544001AF00350D8B4AFEF1AF0D8900232013217
:1035540000320832032EA7EF1AF00BBC08A0C0EF0C
:103564001AF0D8A0C0EF1AF0082AD8B4002AD8B4A8
:10357400012AD8B4022A02BEEAEF1AF00AAEE6EF34
:103584001AF0021E011E001E081E082AD8B4002AC2
:10359400D8B4012AD8B4022AE6EF1AF0026A016A02
:1035A400006A086AE6EF1AF00B800BAEF1EF1AF02E
:1035B400026A0AAEF1EF1AF0026E016E006E086E36
:1035C4000A360232F1EF1AF00C6A000EF2EF1AF02A
:1035D400010E0C6E000EC5EC0CF0F2EF1AF0FF0EAB
:1035E4000250036E0150026E0050016E0850006ECE
:0235F4001200C3
:1035F6000050086E0150006E0250016E0350026EBC
:10360600036A0B6A0C6A9E0E036E0A6A02AE18EF14
:103616001BF0081E001E011E021E082AD8B4002A2E
:10362600D8B4012AD8B4022A0A8E020E0C6EFCEC1B
:0436360006F0120088
:10363A000A01116B3C0E0801336F000E346F356FAF
:10364A00366F57EC0FF000C00FFA0050020AD8A4E8
:10365A002FD10A01106B0F0E105D05E257EC0FF027
:10366A000A01102BF8D72B0E356F080E366FFF0E96
:10367A00376FFF0E386F040E396F000E3A6F44EC45
:10368A000DF0106B080E105D05E257EC0FF00A0101
:10369A00102BF8D7106B060E105D13E257EC0FF0E3
:1036AA0000C00FFA210ED96E080EDA6E0A01105107
:1036BA00D926D8B0DA2A0050DE1801E025D1102B1D
:1036CA00EAD7106BCE0E105D05E257EC0FF00A0137
:1036DA00102BF8D7126B57EC0FF000C00FFAC9D0B5
:1036EA0057EC0FF000C00FFA0050010A05E157EC41
:1036FA000FF000C011FA01D007D1D6D057EC0FF065
:10370A0000C00FFA0050040A10E1270E0A01356FB3
:10371A00080E366FFF0E376FFF0E386F040E396FC3
:10372A00000E3A6F44EC0DF001D0EED0BDD057EC4C
:10373A000FF000C00FFA040E005C10E3410E0A01FC
:10374A00356F080E366FFF0E376FFF0E386F040E97
:10375A00396F000E3A6F44EC0DF001D0D5D00A0152
:10376A00040E0F5F0A010FCA00F00F07005203E0B0
:10377A0057EC0FF0F7D798D057EC0FF000C00FFABC
:10378A00040E005C10E3450E0A01356F080E366F11
:10379A00FF0E376FFF0E386F040E396F000E3A6F47
:1037AA0044EC0DF001D0B0D00A01040E0F5F0A01FB
:1037BA000FCA00F00F07005203E057EC0FF0F7D7DB
:1037CA0073D057EC0FF000C00FFA0050040A10E152
:1037DA00130E0A01356F0A0E366FFF0E376FFF0E92
:1037EA00386F040E396F000E3A6F44EC0DF001D0B9
:1037FA008BD05AD00A01010E126F56D057EC0FF037
:10380A0000C00FFA0050040A24E1330E0A01356F92
:10381A00080E366FFF0E376FFF0E386F040E396FC2
:10382A00000E3A6F44EC0DF008013651000808E129
:10383A003551000805E13451070802E133510808FF
:10384A0007E2080E335F070E345B000E355B365B0A
:10385A0001D05AD029D057EC0FF000C00FFA0FCA86
:10386A0000F00A010F07005203E057EC0FF0F7D7F8
:10387A001BD00A010F51350AD8B432D70F51010AA9
:10388A00D8B43CD70F51030AD8B451D70F51060AFE
:10389A00D8B472D70F51360A94E00F51FF0AAAE042
:1038AA000F51330AABE0D7D70A011253D8B413D752
:1038BA000A011151020A0FE13D0E486F080E496FC5
:1038CA00130E4A6F0A0E4B6F040E4C6F000E4D6FAB
:1038DA00D4EC06F016D03D0E356F080E366F130E77
:1038EA00376F0A0E386F040E396F000E3A6FB7EC55
:1038FA000DF0000E011802E1000E001802E00A01A4
:0C390A00116B11CA00F001D0006A12001D
:103916000450000A12E10550000A0FE10650000AA1
:103926000CE10750000A09E1FF0E006EFF0E016E62
:103936007F0E026EFF0E036EA8D0086A096A075052
:10394600D8B436EF1DF00350D8B43BEF1DF002504B
:1039560006180A6E028E068E0E6A02C008F001C0B4
:103966000CF000C00DF004500D5E0550D8A0053CCB
:103976000C5E0650D8A0063C085E086A0C6A0D6A02
:10398600D8A0CDEF1CF0D8900232013200320832B6
:10399600010E0E6E0750035ED8A0DAEF1CF07E0E05
:1039A6000E240326D8B040EF1DF0E0EF1CF07E0E8B
:1039B6000E240326D8A045EF1DF0180E0B6E0D360B
:1039C6000C3608360036013602360E360450005ED6
:1039D6000550D8A0053C015E0650D8A0063C025E04
:1039E60006340E120EA0FBEF1CF00D8006EF1DF044
:1039F600045000260550D8B0053C01260650D8B024
:103A0600062802260D900B2EE2EF1CF02CEF1DF07F
:103A1600D8900036013602360E360450005E055048
:103A2600D8A0053C015E0650D8A0063C025E0634CE
:103A36000E10010B0D26D8B00C2AD8B4082AD8A42B
:103A46002CEF1DF008320C320D32032AD8B440EFA9
:103A56001DF00AAE089E0850026E0C50016E0D5005
:103A6600006E48EF1DF0010E63EC11F048EF1DF0FB
:103A7600020E4EEC03F048EF1DF0040E7AEC04F053
:0C3A860048EF1DF0080EBBEC04F012002D
:103A920011CA35FA0A013533359F3533359F35332F
:103AA200359F3533359FC0EC13F00FCAE1FF10CAC2
:103AB200E2FF00C0E6FF0F4B102B11CA35FAC0EC33
:103AC20013F00FCAE1FF10CAE2FF00C0E6FF0F4B7E
:103AD200102B0FCAE1FF10CAE2FF2E0EE66E120093
:103AE20057EC0FF00050470A10E157EC0FF000506E
:103AF200450A0BE157EC0FF00050540A06E157EC6F
:103B02000FF00050200A01E102D0006A3FD00A0102
:103B1200156B166B1451165D02E11351155D2FE200
:103B220011CAE9FF12CAEAFFEE50EE1028E057EC84
:103B32000FF00FCAE1FF10CAE2FF00C0E6FF11CA90
:103B4200E9FF12CAEAFF010EEE5C006E000EEE58AB
:103B5200016E11CAE1FF12CAE2FF00C0E6FF01C016
:103B6200E6FF0FCAE9FF10CAEAFF200EEE5C01E28F
:103B720006D00A01154B162B0F4B102BCBD70FCAB1
:0E3B8200E1FF10CAE2FFE66A010E006E1200BB
:103B90000A0E046E7DC800F02BEC04F000C07CF827
:103BA0000A0E0002F3CF00F0005008017D5D816F26
:103BB0000A0E046E80C800F02BEC04F000C082F8FE
:103BC0000A0E0002F3CF00F00050805D7E6F0A0EF7
:103BD000046E7BC800F02BEC04F000C07FF80A0EE6
:103BE0000002F3CF00F000507B5D746F0A0E046E8C
:103BF00073C800F02BEC04F000C075F80A0E000248
:103C0000F3CF00F00050735D716F0A0E046E79C837
:103C100000F02BEC04F000C072F80A0E0002F3CFA3
:103C200000F00050795D7A6F0A0E046E76C800F0DD
:103C30002BEC04F000C078F80A0E0002F3CF00F07D
:103C40000050765D776F01013F51010A44E1809693
:103C500000000000000081C835FA0A01366B1DEC37
:103C60000CF000C035FAF5EC0BF07CC835FA0A010F
:103C7000366B1DEC0CF000C035FAF5EC0BF07EC88D
:103C800035FA0A01366B1DEC0CF000C035FAF5EC84
:103C90000BF082C835FA0A01366B1DEC0CF000C03F
:103CA00035FAF5EC0BF074C835FA3EC136FA1DEC66
:103CB0000CF000C035FAF5EC0BF07FC835FA3BC1CB
:103CC00036FA1DEC0CF000C035FAF5EC0BF00000F4
:103CD00000000000808601013F51020A44E1809605
:103CE00000000000000077C835FA0A01366B1DECB1
:103CF0000CF000C035FAF5EC0BF078C835FA0A0183
:103D0000366B1DEC0CF000C035FAF5EC0BF07AC800
:103D100035FA0A01366B1DEC0CF000C035FAF5ECF3
:103D20000BF072C835FA0A01366B1DEC0CF000C0BE
:103D300035FAF5EC0BF071C835FA3EC136FA1DECD8
:103D40000CF000C035FAF5EC0BF075C835FA3BC144
:103D500036FA1DEC0CF000C035FAF5EC0BF0000063
:083D6000000000008086120043
:103D68000FCA15FA10CA16FA11CA17FA12CA18FA9F
:103D7800800E046E510E056E010E066E000E076E63
:103D88000FCA00F010CA01F011CA02F012CA03F0FB
:103D98007EEC03F000C015FA01C016FA02C017FA4B
:103DA80003C018FA02012C5100240A01156F020100
:103DB8002D5101200A01166F02012E5102200A011D
:103DC800176F02012F5103200A01186F800E121974
:103DD800006E800E005C08E1000E115D05E1000E2A
:103DE800105D02E1000E0F5D06E2010E155F000E88
:103DF800165B175B185B040E1325256F000E142144
:103E0800266F070E046E000E056E066E076E15CA45
:103E180000F016CA01F017CA02F018CA03F07EECC7
:103E280003F008C000F009C001F00AC002F00BC09E
:103E380003F025CAE1FF26CAE2FF00C0E6FFD90E5B
:103E48000A011525256F0B0E1621266F010E172165
:103E5800276F000E1821286F25CA21FA26CA22FAD0
:103E680027CA23FA28CA24FA25CA00F026CA01F06C
:103E780027CA02F028CA03F000360090013602363D
:103E8800033600360090013602360336B10E046E52
:103E98003A0E056E020E066E000E076E7EEC03F0FB
:103EA80000C031FA01C032FA02C033FA03C034FA52
:103EB800B10E006E3A0E016E020E026E000E036E17
:103EC80031CA04F032CA05F033CA06F034CA07F022
:103ED80055EC03F0030E0026000E012202220322F5
:103EE800040E046E000E056E066E076E7EEC03F07F
:103EF80025CA29FA26CA2AFA27CA2BFA28CA2CFA66
:103F080000500A01295F01502A5B02502B5B0350C5
:103F18002C5B29CA21FA2ACA22FA2BCA23FA2CCAEC
:103F280024FA010E2925006E000E2A21016E000ECA
:103F38002B21026E000E2C21036EA00E046E0F0EB4
:103F4800056E000E066E076E55EC03F0090E046E42
:103F58004B0E056E160E066E000E076E7EEC03F015
:103F680000C02DFA01C02EFA02C02FFA03C030FAA1
:103F7800B50E006E050E016E000E026E036E2DCAA0
:103F880004F02ECA05F02FCA06F030CA07F055EC27
:103F980003F0040E046E000E056E066E076E7EECCE
:103FA80003F01F0E005E000E015A025A035A29CA76
:103FB80025FA2ACA26FA2BCA27FA2CCA28FA005048
:103FC8000A01255F0150265B0250275B0350285BDE
:103FD80025CA21FA26CA22FA27CA23FA28CA24FAA5
:103FE800500E006E000E016E026E036E25CA04F0BC
:103FF80026CA05F027CA06F028CA07F055EC03F0D0
:1040080000C019FA01C01AFA02C01BFA03C01CFA50
:104018008F0E046E090E056E000E066E076E7EEC9E
:1040280003F000C029FA01C02AFA02C02BFA03C023
:104038002CFA29CA19FA2ACA1AFA2BCA1BFA2CCA44
:104048001CFA8F0E006E090E016E000E026E036ED2
:1040580029CA04F02ACA05F02BCA06F02CCA07F0B0
:1040680055EC03F0500E046E000E056E066E076EDA
:104078007EEC03F025CA1DFA26CA1EFA27CA1FFAC3
:1040880028CA20FA00500A011D5F01501E5B025029
:104098001F5B0350205B0B0E046E000E056E066E50
:1040A800076E29CA00F02ACA01F02BCA02F02CCAEE
:1040B80003F07EEC03F000C025FA01C026FA02C026
:1040C80027FA03C028FA25CA21FA26CA22FA27CADB
:1040D80023FA28CA24FA020E0A012925196F000EAC
:1040E8002A211A6F000E2B211B6F000E2C211C6F2A
:1040F8000C0E006E000E016E026E036E25CA04F0EF
:1041080026CA05F027CA06F028CA07F055EC03F0BE
:104118000050195F01501A5B02501B5B03501C5B77
:1041280031CA00F032CA01F033CA02F034CA03F0CF
:10413800310E005E000E015A025A035A640E046ED4
:10414800000E056E066E076E55EC03F02D51002625
:104158002E5101222F5102223051032225510026CF
:10416800265101222751022228510322060E132527
:10417800E16E000E1421E26E00C0E6FF01C0E6FF0A
:10418800050E1325E16E000E1421E26E19CAE6FF32
:10419800030E1325E16E000E1421E26E1DCAE6FF20
:1041A800800E1219006E800E005C08E1000E115D91
:1041B80005E1000E105D02E1000E0F5D43E20FCA3B
:1041C80000F010CA01F011CA02F012CA03F0FF0E83
:1041D800046EFF0E056E066E076E55EC03F000C008
:1041E8000FFA01C010FA02C011FA03C012FA800EC9
:1041F800046E510E056E010E066E000E076E7EEC03
:1042080003F008C000F009C001F00AC002F00BC0BA
:1042180003F000C00FFA01C010FA02C011FA03C07F
:1042280012FA800E0A010F6F510E106F010E116FF6
:10423800000E126F00500F5F0150105B0250115BAF
:104248000350125B800E046E510E056E010E066E51
:10425800000E076E0FCA00F010CA01F011CA02F072
:1042680012CA03F07EEC03F008C000F009C001F0A8
:104278000AC002F00BC003F000C021FA01C022FA04
:1042880002C023FA03C024FA100E046E0E0E056E47
:10429800000E066E000E076E7EEC03F000C01DFADD
:1042A80001C01EFA02C01FFA03C020FA020E0A015A
:1042B8001325E16E000E1421E26E00C0E6FF21CA4C
:1042C8001DFA22CA1EFA23CA1FFA24CA20FA020EAD
:1042D8001325E96E000E1421EA6EEECF00F0000EF1
:1042E800016E026E036E100E046E0E0E056E000E49
:1042F800066E000E076E55EC03F021CA04F022CAC0
:1043080005F023CA06F024CA07F00050045E0150E5
:10431800055A0250065A0350075A04C01DFA05C030
:104328001EFA06C01FFA07C020FA04C000F005C034
:1043380001F006C002F007C003F03C0E046E000E48
:10434800056E000E066E000E076E7EEC03F000C0D0
:104358001DFA01C01EFA02C01FFA03C020FA010E9E
:104368000A011325E16E000E1421E26E00C0E6FF7B
:104378003C0E046E000E056E000E066E000E076EF3
:1043880021CA00F022CA01F023CA02F024CA03F0AD
:104398007EEC03F008C000F009C001F00AC002F08A
:1043A8000BC003F000C01DFA01C01EFA02C01FFABC
:1043B80003C020FA13CAE1FF14CAE2FF00C0E6FFF7
:0243C8001200E1
:1043CA00BCD0370E0A01356F080E366F376B040EF4
:1043DA00386F000E396F71EC0FF0010E0F6F106B12
:1043EA00E3EC16F044C453F745C454F746C455F7F2
:1043FA0047C456F7030E0201206FB2D0050E07011B
:10440A005325016E000E5421026E000E5521036ED3
:10441A00000E5621046E04014751045C08E146511E
:10442A00035C05E14551025C02E14451015C03E28F
:10443A00020E0201206F1DEC1BF00050020A04E17B
:10444A00040E0201206F01D08BD0030E0A010F6FF8
:10445A0004C210FAE3EC16F044C453F745C454F707
:10446A0046C455F747C456F7050E0201206F78D0A7
:10447A001DEC1BF000C037F90050060A04E1040ED7
:10448A000201206F2FD009013751050A2BE144C4DC
:10449A0053F745C454F746C455F747C456F7060EB2
:1044AA000201206F370E0A01486F080E496F2B0E62
:1044BA004A6F080E4B6F040E4C6F000E4D6FD4EC12
:1044CA0006F0270E0F6F080E106F410E116F080EBF
:1044DA00126F450E136F080E146F34EC15F00201BB
:1044EA00046B3ED03DD0010E07015325016E000E2C
:1044FA005421026E000E5521036E000E5621046EE1
:10450A0004500401475D08E10350465D05E102508D
:10451A00455D02E10150445D0FE3010E0801335F7E
:10452A00000E345B355B365B44C453F745C454F71D
:10453A0046C455F747C456F713D002012051020A60
:10454A00D8B43FD72051030AD8B458D72051040A07
:10455A00D8B47BD72051050A8BE02051060AC3E064
:02456A0012003D
:10456C00B50E0A01486F190E496FBB0E4A6F190E32
:10457C004B6FAF0E4C6F190E4D6F4E6B35EC09F047
:10458C00B50E486F190E496F210E4A6F080E4B6F0E
:0E459C00060E4C6F000E4D6FC4EC09F01200BD
:1045AA000A01566BA3EC04F000C03CF9010E0A01A3
:1045BA00566FA3EC04F000C03DF90A01596B37C9E4
:1045CA005AFA38C95BFA99EC01F0809831C8E1FFD0
:1045DA0032C8E2FF3A0EE66E2FC800F030C801F08A
:1045EA00BDEC00F009013B5318E031C8E1FF32C8C5
:1045FA00E2FFE66A2FC800F030C801F0BDEC00F017
:10460A0039C9D9FF3AC9DAFF0050DE1801E005D0EE
:10461A000901394B3A2B3B07E5D780880A01596BC8
:10462A003CC95AFA3DC95BFA99EC01F03BC900F062
:02463A0012006C
:10463C0057EC0FF057EC0FF057EC0FF000C038F9B7
:10464C0057EC0FF000C037F957EC0FF000C03AF9F7
:10465C0057EC0FF000C039F957EC0FF000C03CF9E3
:10466C0057EC0FF000C03BF957EC0FF057EC0FF084
:10467C0057EC0FF057EC0FF039C900F03AC901F0C4
:10468C00010E0901395F000E3A5B005001100EE07B
:10469C0057EC0FF0005201E0FBD757EC0FF057EC42
:1046AC000FF057EC0FF057EC0FF0E6D73BC900F0CA
:1046BC003CC901F0010E09013B5F000E3C5B005050
:1046CC00011048E057EC0FF057EC0FF057EC0FF0DF
:1046DC0000C040F957EC0FF000C03FF957EC0FF059
:1046EC0057EC0FF057EC0FF057EC0FF057EC0FF0B6
:1046FC0057EC0FF057EC0FF000C03EF957EC0FF0F1
:10470C0000C03DF9000E0901401902E1010E3F19EC
:10471C0011E157EC0FF000C064F757EC0FF000C03C
:10472C0065F757EC0FF000C066F757EC0FF000C0C0
:10473C0067F710D03DC900F03EC901F0010E090128
:10474C003D5F000E3E5B0050011003E057EC0FF094
:06475C00F1D7ACD71200FA
:1047620009013851190802E13751AD0804E2AE0ED1
:10477200375F190E385B0A01596B37C95AFA38C9C3
:084782005BFA99EC01F0120052
:10478A000A010C6B0D6B000E09013C1902E1500E77
:10479A003B1904E0006A016A47EF3CF0890E0A01FE
:1047AA000F6F090E106F3D0E116F090E126F800EFA
:1047BA00136F000E146F71EC1DF00050000A04E133
:1047CA00006A016A47EF3CF0890E0A01356F090E4B
:1047DA00366F2B0E376F030E386F060E396F000EC9
:1047EA003A6FB7EC0DF0000E011802E1000E001846
:1047FA00D8A477EF35F009019051730AD8A4B0EF25
:10480A002AF08C0E0A01356FDE0E366F000E376FF6
:10481A0023EC14F000C00CFA01C00DFA770E356FC4
:10482A00E00E366F000E376F23EC14F000500C27A1
:10483A0001500D2303010751000A3DE11C0E0A0134
:10484A00356FE10E366F000E376F23EC14F000500F
:10485A000C2701500D23310E356FE00E366F000E16
:10486A00376F23EC14F000500C2701500D23080E6B
:10487A000F6F030E106F6CEC18F000500C270150EC
:10488A000D23C70E356FD90E366F000E376F23EC26
:10489A0014F000500C2701500D23EA0E356FE20E7A
:1048AA00366F000E376F23EC14F000500C270150BE
:1048BA000D23AEEF2AF0010E0201FD6F840E0A01EC
:1048CA00356FE00E366F000E376F23EC14F0005090
:1048DA000C2701500D23010E0F6F33C310FAA3ECFE
:1048EA0018F000500C2701500D23AA0E356FE00E68
:1048FA00366F000E376F23EC14F000500C2701506E
:10490A000D23090E356FE00E366F000E376F23EC5C
:10491A0014F000500C2701500D23FE0E0F6F020EEB
:10492A00106F6CEC18F000500C2701500D23350E57
:10493A00356FD90E366F000E376F23EC14F0005026
:10494A000C2701500D23C00E356FE20E366F000E94
:10495A00376F23EC14F000500C2701500D23C20EC0
:10496A00356FE00E366F000E376F23EC14F00050EF
:10497A000C2701500D231D0E356FE00E366F000E09
:10498A00376F23EC14F000500C2701500D23220E30
:10499A000F6F030E106F6CEC18F000500C270150CB
:1049AA000D230F0E356FDC0E366F000E376F23ECBA
:1049BA0014F000500C2701500D23C70E356FE20E7C
:1049CA00366F000E376F23EC14F000500C2701509D
:1049DA000D2303013351010AD8A480D0A00E0A0185
:1049EA00356FE10E366F000E376F23EC14F000506E
:1049FA000C2701500D23080E356FD80E366F000EA6
:104A0A00376F23EC14F000500C2701500D23010ED0
:104A1A000A6F000E0B6F800E0B19006E800E005C81
:104A2A0002E1050E0A5D4DE2040E356FE20E366FA5
:104A3A00000E376F23EC14F000500C2701500D23A1
:104A4A00000E0B1904E1030111510A010A190CE1C4
:104A5A00960E356FE10E366F000E376F23EC14F0A9
:104A6A0000500C2701500D238D0E356FE30E366F63
:104A7A00000E376F23EC14F000500C2701500D2361
:104A8A00010E0A5D006E000E0B59016E030E046ED4
:104A9A00000E056E96EC0BF0120E0024E96E030E62
:104AAA000120EA6EEECF35FAEECF36FAEECF37FABC
:104ABA0023EC14F000500C2701500D230A4B0B2B4A
:104ACA00AAD7B60E356FE00E366F000E376F23EC9D
:104ADA0014F000500C2701500D2303D0010E0301DE
:104AEA00116F03011151010AD8A449D1460E0A01D6
:104AFA00356FE10E366F000E376F23EC14F000505D
:104B0A000C2701500D23450E356FE00E366F000E4F
:104B1A00376F23EC14F000500C2701500D23C00E00
:104B2A000F6F030E106F6CEC18F000500C27015039
:104B3A000D2303013351010A0DE1EC0E0A01356F11
:104B4A00D80E366F000E376F23EC14F000500C2786
:104B5A0001500D2303013351010A0EE1B90E0A0176
:104B6A00356FE20E366F000E376F23EC14F00050EB
:104B7A000C2701500D230DD00A012C0E356FE30EC0
:104B8A00366F000E376F23EC14F000500C270150DB
:104B9A000D23640E356FE10E366F000E376F23EC6E
:104BAA0014F000500C2701500D23F50E356FDF0E5F
:104BBA00366F000E376F23EC14F000500C270150AB
:104BCA000D23EC0E0F6F030E106F6CEC18F00050F3
:104BDA000C2701500D2303013351010A0DE1EA0E9E
:104BEA000A01356FDC0E366F000E376F23EC14F0B6
:104BFA0000500C2701500D2303013351010A0EE125
:104C0A000D0E0A01356FE30E366F000E376F23EC77
:104C1A0014F000500C2701500D230DD00A01300E5C
:104C2A00356FE30E366F000E376F23EC14F0005029
:104C3A000C2701500D235A0E356FE10E366F000E08
:104C4A00376F23EC14F000500C2701500D23F10E9E
:104C5A00356FDE0E366F000E376F23EC14F00050FE
:104C6A000C2701500D23F00E0F6F030E106F6CEC22
:104C7A0018F000500C2701500D2303013351010A8B
:104C8A000DE1C50E0A01356FDD0E366F000E376F66
:104C9A0023EC14F000500C2701500D23030133516B
:104CAA00010A0EE1060E0A01356FE30E366F000E99
:104CBA00376F23EC14F000500C2701500D230DD050
:104CCA000A01280E356FE30E366F000E376F23EC9C
:104CDA0014F000500C2701500D23500E356FE10ED1
:104CEA00366F000E376F23EC14F000500C2701507A
:104CFA000D23DD0E356FDE0E366F000E376F23EC97
:104D0A0014F000500C2701500D23E40E0F6F030E10
:104D1A00106F6CEC18F000500C2701500D230301A2
:104D2A003351010A0DE1100E0A01356FDA0E366FA2
:104D3A00000E376F23EC14F000500C2701500D239E
:104D4A0003013351010A0EE1AB0E0A01356FE20E7F
:104D5A00366F000E376F23EC14F000500C27015009
:104D6A000D230DD00A01240E356FE30E366F000EA7
:104D7A00376F23EC14F000500C2701500D23030168
:104D8A001151020AD8A449D1310E0A01356FE20E37
:104D9A00366F000E376F23EC14F000500C270150C9
:104DAA000D2303013351010A23E1050E0A01356F70
:104DBA00DF0E366F000E376F23EC14F000500C270D
:104DCA0001500D23E80E0F6F030E106F6CEC18F0F4
:104DDA0000500C2701500D23C60E356FDB0E366FBF
:104DEA00000E376F23EC14F000500C2701500D23EE
:104DFA0003013351010A0EE1A40E0A01356FE20ED6
:104E0A00366F000E376F23EC14F000500C27015058
:104E1A000D230DD00A01370E356FE30E366F000EE3
:104E2A00376F23EC14F000500C2701500D23FB0EB2
:104E3A00356FE10E366F000E376F23EC14F0005019
:104E4A000C2701500D2303013351010A23E1190EE6
:104E5A000A01356FDF0E366F000E376F23EC14F040
:104E6A0000500C2701500D23FC0E0F6F030E106F1C
:104E7A006CEC18F000500C2701500D23340E356FDE
:104E8A00DB0E366F000E376F23EC14F000500C2740
:104E9A0001500D2303013351010A0EE1E30E0A0109
:104EAA00356FE20E366F000E376F23EC14F00050A8
:104EBA000C2701500D230DD00A01340E356FE30E75
:104ECA00366F000E376F23EC14F000500C27015098
:104EDA000D230D0E356FE20E366F000E376F23EC81
:104EEA0014F000500C2701500D2303013351010A1D
:104EFA0023E1A50E0A01356FDF0E366F000E376FFC
:104F0A0023EC14F000500C2701500D23000E0F6FF4
:104F1A00040E106F6CEC18F000500C2701500D2392
:104F2A00EB0E356FDA0E366F000E376F23EC14F086
:104F3A0000500C2701500D2303013351010A0EE1E1
:104F4A00CE0E0A01356FE20E366F000E376F23EC74
:104F5A0014F000500C2701500D230DD00A01760ED3
:104F6A00356FE30E366F000E376F23EC14F00050E6
:104F7A000C2701500D235E0E356FE20E366F000EC0
:104F8A00376F23EC14F000500C2701500D23030156
:104F9A003351010A23E1910E0A01356FDF0E366F94
:104FAA00000E376F23EC14F000500C2701500D232C
:104FBA00F40E0F6F030E106F6CEC18F000500C27F4
:104FCA0001500D23A20E356FDA0E366F000E376FC1
:104FDA0023EC14F000500C2701500D230301335128
:104FEA00010A0EE1D50E0A01356FE20E366F000E88
:104FFA00376F23EC14F000500C2701500D230DD00D
:10500A000A01700E356FE30E366F000E376F23EC10
:10501A0014F000500C2701500D2303011151030A0B
:10502A00D8A449D1550E0A01356FE20E366F000E2B
:10503A00376F23EC14F000500C2701500D230301A5
:10504A003351010A23E1B90E0A01356FDF0E366FBB
:10505A00000E376F23EC14F000500C2701500D237B
:10506A00F80E0F6F030E106F6CEC18F000500C273F
:10507A0001500D237D0E356FDB0E366F000E376F34
:10508A0023EC14F000500C2701500D230301335177
:10509A00010A0EE1DC0E0A01356FE20E366F000ED0
:1050AA00376F23EC14F000500C2701500D230DD05C
:1050BA000A017C0E356FE30E366F000E376F23EC54
:1050CA0014F000500C2701500D234C0E356FE20EE0
:1050DA00366F000E376F23EC14F000500C27015086
:1050EA000D2303013351010A23E1E10E0A01356F51
:1050FA00DF0E366F000E376F23EC14F000500C27CA
:10510A0001500D23E00E0F6F030E106F6CEC18F0B8
:10511A0000500C2701500D237E0E356FD90E366FC5
:10512A00000E376F23EC14F000500C2701500D23AA
:10513A0003013351010A0EE19D0E0A01356FE20E99
:10514A00366F000E376F23EC14F000500C27015015
:10515A000D230DD00A01670E356FE30E366F000E70
:10516A00376F23EC14F000500C2701500D233A0E30
:10517A00356FE20E366F000E376F23EC14F00050D5
:10518A000C2701500D2303013351010A23E1CD0EEF
:10519A000A01356FDF0E366F000E376F23EC14F0FD
:1051AA0000500C2701500D23CC0E0F6F030E106F09
:1051BA006CEC18F000500C2701500D23590E356F76
:1051CA00DA0E366F000E376F23EC14F000500C27FE
:1051DA0001500D2303013351010A0EE1B20E0A01F7
:1051EA00356FE20E366F000E376F23EC14F0005065
:1051FA000C2701500D230DD00A015E0E356FE30E08
:10520A00366F000E376F23EC14F000500C27015054
:10521A000D23C50E356FE10E366F000E376F23EC86
:10522A0014F000500C2701500D2303013351010AD9
:10523A0023E1410E0A01356FDF0E366F000E376F1C
:10524A0023EC14F000500C2701500D23D00E0F6FE1
:10525A00030E106F6CEC18F000500C2701500D2350
:10526A007C0E356FDD0E366F000E376F23EC14F0AF
:10527A0000500C2701500D2303013351010A0EE19E
:10528A00F10E0A01356FE20E366F000E376F23EC0E
:10529A0014F000500C2701500D230DD00A016A0E9C
:1052AA00356FE30E366F000E376F23EC14F00050A3
:1052BA000C2701500D2303011151040AD8A449D126
:1052CA00B30E0A01356FE10E366F000E376F23EC0D
:1052DA0014F000500C2701500D2303013351010A29
:1052EA0023E12D0E0A01356FDF0E366F000E376F80
:1052FA0023EC14F000500C2701500D23C40E0F6F3D
:10530A00030E106F6CEC18F000500C2701500D239F
:10531A000E0E356FDE0E366F000E376F23EC14F06B
:10532A0000500C2701500D2303013351010A0EE1ED
:10533A00F80E0A01356FE20E366F000E376F23EC56
:10534A0014F000500C2701500D230DD00A015B0EFA
:10535A00356FE30E366F000E376F23EC14F00050F2
:10536A000C2701500D23D70E356FE10E366F000E54
:10537A00376F23EC14F000500C2701500D23030162
:10538A003351010A23E1550E0A01356FDF0E366FDC
:10539A00000E376F23EC14F000500C2701500D2338
:1053AA00C80E0F6F030E106F6CEC18F000500C272C
:1053BA0001500D23330E356FDD0E366F000E376F39
:1053CA0023EC14F000500C2701500D230301335134
:1053DA00010A0EE1FF0E0A01356FE20E366F000E6A
:1053EA00376F23EC14F000500C2701500D230DD019
:1053FA000A01880E356FE30E366F000E376F23EC05
:10540A0014F000500C2701500D23AA0E356FE10E3F
:10541A00366F000E376F23EC14F000500C27015042
:10542A000D2303013351010A23E17D0E0A01356F71
:10543A00DF0E366F000E376F23EC14F000500C2786
:10544A0001500D23D80E0F6F030E106F6CEC18F07D
:10545A0000500C2701500D23A10E356FDC0E366F5C
:10546A00000E376F23EC14F000500C2701500D2367
:10547A0003013351010A0EE1960E0A01356FE20E5D
:10548A00366F000E376F23EC14F000500C270150D2
:10549A000D230DD00A01550E356FE30E366F000E3F
:1054AA00376F23EC14F000500C2701500D23CE0E59
:1054BA00356FE10E366F000E376F23EC14F0005093
:1054CA000C2701500D2303013351010A23E1690E10
:1054DA000A01356FDF0E366F000E376F23EC14F0BA
:1054EA0000500C2701500D23DC0E0F6F030E106FB6
:1054FA006CEC18F000500C2701500D23580E356F34
:10550A00DC0E366F000E376F23EC14F000500C27B8
:10551A0001500D2303013351010A0EE18F0E0A01D6
:10552A00356FE20E366F000E376F23EC14F0005021
:10553A000C2701500D230DD00A01610E356FE30EC1
:10554A00366F000E376F23EC14F000500C27015011
:10555A000D2375EF35F0DBEF34F0300E0901925D63
:10556A00006E00C033F3670E0A010F6F000E106F52
:10557A0000C011FA4BEC18F0050E0B6E0F0E0C6EF4
:10558A00F10E0D6E0D2EFED70C2EFCD70B2EFAD770
:10559A001EEC19F003EC00F00CEF35F00301335167
:1055AA00010AD8A436EF32F0310EC05D31E3C051A2
:1055BA0039082EE3300EC15D2BE3C151390828E3C7
:1055CA00300EC25D25E3C251390822E3010E0A01F9
:1055DA000F6F000E106F300E0301C05D0A01116FCC
:1055EA00640E1103F3CF11FA300E0301C15D006E90
:1055FA000A0E0002F3CF00F000500A011127300E04
:10560A000301C25D006E00500A0111274BEC18F02D
:10561A00310E0301C05D23E2310EC15D20E3C151A9
:10562A0039081DE3300EC25D1AE3C251390817E387
:10563A00010E0A010F6F000E106F300E0301C15DDB
:10564A000A01116F0A0E1103F3CF11FA300E03018A
:10565A00C25D006E00500A0111274BEC18F0310EA2
:10566A000301C05D15E2310EC15D12E2300EC25D6A
:10567A000FE3C25139080CE3010E0A010F6F000E45
:10568A00106F300E0301C25D0A01116F4BEC18F066
:10569A00310E0301EC5D31E3EC5139082EE3300E93
:1056AA00ED5D2BE3ED51390828E3300EEE5D25E37D
:1056BA00EE51390822E3020E0A010F6F000E106F35
:1056CA00300E0301EC5D0A01116F640E1103F3CF72
:1056DA0011FA300E0301ED5D006E0A0E0002F3CFDF
:1056EA0000F000500A011127300E0301EE5D006E32
:1056FA0000500A0111274BEC18F0310E0301EC5D42
:10570A0023E2310EED5D20E3ED5139081DE3300E41
:10571A00EE5D1AE3EE51390817E3020E0A010F6F24
:10572A00000E106F300E0301ED5D0A01116F0A0EB3
:10573A001103F3CF11FA300E0301EE5D006E005033
:10574A000A0111274BEC18F0310E0301EC5D15E24A
:10575A00310EED5D12E2300EEE5D0FE3EE513908C7
:10576A000CE3020E0A010F6F000E106F300E0301D8
:10577A00EE5D0A01116F4BEC18F0310E0301F05D7A
:10578A0031E3F05139082EE3300EF15D2BE3F1518C
:10579A00390828E3300EF25D25E3F251390822E395
:1057AA00030E0A010F6F000E106F300E0301F05D39
:1057BA000A01116F640E1103F3CF11FA300E0301BF
:1057CA00F15D006E0A0E0002F3CF00F000500A01EC
:1057DA001127300E0301F25D006E00500A011127F5
:1057EA004BEC18F0310E0301F05D23E2310EF15D4E
:1057FA0020E3F15139081DE3300EF25D1AE3F2514C
:10580A00390817E3030E0A010F6F000E106F300EEE
:10581A000301F15D0A01116F0A0E1103F3CF11FAA8
:10582A00300E0301F25D006E00500A0111274BECA5
:10583A0018F0310E0301F05D15E2310EF15D12E24E
:10584A00300EF25D0FE3F25139080CE3030E0A0140
:10585A000F6F000E106F300E0301F25D0A01116F17
:10586A004BEC18F0310E0301E45D31E3E4513908E1
:10587A002EE3300EE55D2BE3E551390828E3300EBF
:10588A00E65D25E3E651390822E3040E0A010F6FAB
:10589A00000E106F300E0301E45D0A01116F640EF1
:1058AA001103F3CF11FA300E0301E55D006E0A0E03
:1058BA000002F3CF00F000500A011127300E030155
:1058CA00E65D006E00500A0111274BEC18F0310E0C
:1058DA000301E45D23E2310EE55D20E3E551390879
:1058EA001DE3300EE65D1AE3E651390817E3040EAC
:1058FA000A010F6F000E106F300E0301E55D0A01F9
:10590A00116F0A0E1103F3CF11FA300E0301E65D8F
:10591A00006E00500A0111274BEC18F0310E0301FA
:10592A00E45D15E2310EE55D12E2300EE65D0FE34D
:10593A00E65139080CE3040E0A010F6F000E106FCE
:10594A00300E0301E65D0A01116F4BEC18F0310EBF
:10595A000301F85D31E3F85139082EE3300EF95DA1
:10596A002BE3F951390828E3300EFA5D25E3FA51A1
:10597A00390822E3050E0A010F6F000E106F300E70
:10598A000301F85D0A01116F640E1103F3CF11FAD6
:10599A00300E0301F95D006E0A0E0002F3CF00F02B
:1059AA0000500A011127300E0301FA5D006E005003
:1059BA000A0111274BEC18F0310E0301F85D23E2BE
:1059CA00310EF95D20E3F95139081DE3300EFA5D15
:1059DA001AE3FA51390817E3050E0A010F6F000E90
:1059EA00106F300E0301F95D0A01116F0A0E1103DF
:1059FA00F3CF11FA300E0301FA5D006E00500A016E
:105A0A0011274BEC18F0310E0301F85D15E2310E47
